S00D0000626C696E6B2E7372656307
S11300000C9434000C943E000C943E000C943E007E
S11300100C943E000C943E000C943E000C943E0064
S11300200C943E000C943E000C943E000C943E0054
S11300300C943E000C943E000C943E000C943E0044
S11300400C943E000C943E000C943E000C943E0034
S11300500C943E000C943E000C943E000C943E0024
S11300600C943E000C943E0011241FBECFEFD8E048
S1130070DEBFCDBF0E9440000C94BC000C94000075
S1130080259A2D9880E22FEF33ED40E32150304044
S11300904040E1F700C0000095B1982795B95FEFA3
S11300A097EA21E6515090402040E1F700C000005B
S11300B024E030E095B1982795B94FEF53ED90E3E4
S11300C0415050409040E1F700C0000021503109F8
S11300D089F795B1982795B92FEF37EA41E6215072
S11300E030404040E1F700C0000095B1982795B931
S11300F05FEF93ED20E3515090402040E1F700C0C2
S1130100000095B1982795B93FEF47EA51E6315081
S113011040405040E1F700C0000024E030E095B1D9
S1130120982795B99FEF43ED50E3915040405040DC
S1130130E1F700C000002150310989F723E030E0E5
S113014095B1982795B99FEF47EA51E69150404001
S11301505040E1F700C0000095B1982795B99FEF92
S113016043ED50E3915040405040E1F700C000009F
S10F01702150310929F787CFF894FFCF04
S9030000FC
