S00E000030362D6C63642E7372656350
S11300000C9434000C9451000C9451000C94510045
S11300100C9451000C9451000C9451000C94510018
S11300200C9451000C9426010C9451000C94510032
S11300300C9451000C9451000C9451000C945100F8
S11300400C94FC010C9451000C9451000C9451003C
S11300500C9451000C9451000C9451000C945100D8
S11300600C9451000C94510011241FBECFEFD8E022
S1130070DEBFCDBF11E0A0E0B1E0E2E1F5E002C0F7
S113008005900D92AC30B107D9F721E0ACE0B1E0B6
S113009001C01D92A331B207E1F70E94F6000C944F
S11300A087020C940000299A85E08A95F1F70000F4
S11300B029980895CF93C82F662311F0289A01C078
S11300C02898549A559A569A579A5F985E985D98CC
S11300D05C98CC230CF45F9AC6FD5E9AC5FD5D9ACC
S11300E0C4FD5C9A0E9453005F985E985D985C988A
S11300F0C3FD5F9AC2FD5E9AC1FD5D9AC0FD5C9A24
S11301000E9453005C9A5D9A5E9A5F9A87EB9BE02B
S11301100197F1F700C00000CF91089560E00E94BC
S11301205A000895611104C080580E948E000895F9
S113013080540E948E00089581E00E948E000895EC
S113014061E00E945A000895CF93DF93EC01219659
S1130150FC018081882329F00E94A00089918111EB
S1130160FBCFDF91CF910895CF93C82F209A559A52
S1130170219A549A559A569A579A8FEF99EF019764
S1130180F1F700C000005D9A5C9A0E9453008FE171
S11301909EE40197F1F700C000000E9453008FEF26
S11301A090E00197F1F700C000000E9453008FEF28
S11301B090E00197F1F700C000005C980E945300A2
S11301C08FEF90E00197F1F700C0000088E20E94F1
S11301D08E0088E00E948E000E949C0086E00E94AF
S11301E08E008C2F0E948E00CF9108958CE00E9487
S11301F0B40060E081E00E94920084E091E00E94FB
S1130200A40061E081E00E94920082E60E94A000C6
S113021061E08CE00E94920083E60E94A000E1EB82
S1130220F0E0808187608083E0E7F0E08081816096
S1130230808385B58C7F85BD85B5846085BDEEE6FC
S1130240F0E08081816080837894FFCF1F920F92C9
S11302500FB60F9211242F933F934F935F936F9395
S11302607F938F939F93AF93BF93EF93FF93CF931A
S1130270DF93CDB7DEB72A97DEBFCDBF80E390E032
S11302809A83898380E390E39C838B839E838D830D
S113029098878F839A878987809112018F5F863030
S11302A018F4809312018FC01092120180911101F1
S11302B08F5F8A3019F08093110107C010921101E9
S11302C0809110018F5F80931001809110018A301A
S11302D039F484E090E0909303018093020116C006
S11302E08C33A1F485E090E09093030180930201A4
S11302F01092100180910F018F5F80930F0160E0D5
S113030084E00E94920080E30E94A00080910F018B
S11303108A3031F481E090E09093010180930001F0
S1130320809110014AE0BE01695F7F4F889FC00140
S113033011240E945202809111014AE0BE016F5FB4
S11303407F4F90E00E945202809110014AE0BE016A
S11303506D5F7F4F90E00E94520280910F014AE04E
S1130360BE016B5F7F4F90E00E94520260E080917B
S113037000010E949200CE0105960E94A40060E054
S113038083E00E94920060E0809102010E9492004A
S1130390CE0103960E94A40060E086E00E949200D1
S11303A08EE20E94A00060E087E00E949200CE01ED
S11303B001960E94A40060E08CE00E949200CE01AD
S11303C007960E94A4002A960FB6F894DEBF0FBECB
S11303D0CDBFDF91CF91FF91EF91BF91AF919F91ED
S11303E08F917F916F915F914F913F912F910F90DA
S11303F00FBE0F901F9018951F920F920FB60F9279
S113040011242F933F934F935F936F937F938F9315
S11304109F93AF93BF93CF93EF93FF9380910E017C
S11304208F5F80930E01863058F180910D0161E059
S11304308F5F0E94920080910C010E94A000109294
S11304400E0180910C018F5F80930C01843039F48C
S113045080910D018F5F80930D0110920C018091AA
S11304600D01893069F410920D01C0E061E08C2F18
S11304700E94920080E20E94A000CF5FCA30B1F7D0
S1130480FF91EF91CF91BF91AF919F918F917F9108
S11304906F915F914F913F912F910F900FBE0F90ED
S11304A01F901895BB274A3031F4992322F4BDE2FA
S11304B0909581959F4F0C945E02BB27FB015527B5
S11304C0AA27880F991FAA1FA41710F0A41B8395AD
S11304D05051B9F7A05DAA3308F0A95DA193009724
S11304E079F7B111B1931192CB010C947702DC012D
S11304F0FC01672F71917723E1F7329704C07C9157
S11305006D9370836291AE17BF07C8F30895F89492
S1050510FFCF17
S10F05120200050030303A30302E30007A
S9030000FC
