S00E00007365636F6E642E737265639A
S11300000C9434000C943E000C943E000C943E007E
S11300100C943E000C943E000C943E000C943E0064
S11300200C943E000C943E000C943E000C943E0054
S11300300C943E000C943E000C943E000C943E0044
S11300400C943E000C943E000C943E000C943E0034
S11300500C943E000C943E000C943E000C943E0024
S11300600C943E000C943E0011241FBECFEFD8E048
S1130070DEBFCDBF0E9440000C94C6000C9400006B
S1130080219A239A259A399A3B9A29982B982D9844
S11300904198439892E088E020E235B1392735B998
S11300A03FEF42E557E0315040405040E1F700C097
S11300B0000035B1392735B935B1382735B93FEFA7
S11300C042E557E0315040405040E1F700C00000A5
S11300D035B1382735B935B1322735B93FEF42E567
S11300E057E0315040405040E1F700C0000035B1C6
S11300F0322735B938B1392738B93FEF42E557E0EF
S1130100315040405040E1F700C0000038B1392779
S113011038B938B1382738B93FEF42E557E03150A4
S113012040405040E1F700C0000038B1382738B9EA
S113013038B1392738B93FEF42E557E031504040F4
S11301405040E1F700C0000038B1392738B935B163
S1130150322735B93FEF42E557E031504040504037
S1130160E1F700C0000035B1322735B935B1382781
S113017035B93FEF42E557E0315040405040E1F798
S113018000C0000035B1382735B987CFF894FFCFC8
S9030000FC
